:1000000012C0E1C0E0C0DFC0DEC0DDC0DCC0DBC0CC
:10001000DAC0D9C0D8C0D7C0D6C0D5C0D4C000605F
:1000200000660001D00011241FBECFE5D2E0DEBF84
:10003000CDBFEEE1F0E040E017C0B591A59135915C
:100040002591059107FD0CC095918591EF01F92F40
:10005000E82F05900D92A217B307D9F7FE0104C04F
:100060001D92A217B307E1F7E532F40731F768D024
:06007000A3C0F894FFCFCD
:100076009B01482F611571058105A9F1FB0184914A
:1000860047FD8081869586958695877090E08630B7
:1000960091055CF5F901249147FD208126FB332764
:1000A60030F926FF03C0313079F021C047B321E093
:1000B60030E0B90102C0660F771F8A95E2F7CB01DF
:1000C600842B87BB81E0089547B321E030E0B90176
:1000D60002C0660F771F8A95E2F7CB0180958423CD
:1000E60087BB81E0089580E0089580E0089580E070
:0200F60008956B
:1000F800611571058105E1F0FB01982F849197FD49
:1001080080818695869586958770282F30E02630E1
:10011800310584F448B321E030E0B90102C0660F2C
:10012800771F8A95E2F7CB01842788BB81E0089581
:0801380080E0089580E00895C5
:1001400022D065E670E080E8D7DF64E670E080E802
:10015000D3DF63E670E080E8CFDF62E670E080E83E
:10016000CBDF61E670E080E8C7DF60E670E080E842
:10017000C3DF2FE986E891E0215080409040E1F70D
:0601800000C00000DECF0C
:1001860065E670E080E874DF64E670E080E870DFC2
:1001960063E670E080E86CDF62E670E080E868DFC6
:1001A60061E670E080E864DF60E670E080E860DFCA
:0201B6000895AA
:0E01B800EC0107D005D0CE0105D0CE0104D059
:0201C6001CCF4C
:0201C800089598
:0201CA00089596
:0201CC00089594
:0201CE0051DFFF
:0101D00068C6
:0101D10060CD
:0101D20058D4
:0101D30050DB
:0101D40048E2
:0101D50040E9
:00000001FF
